{
  "_format": "hh-sol-artifact-1",
  "contractName": "Pap3rs",
  "sourceName": "contracts/Pap3rs.sol",
  "abi": [
    {
      "inputs": [],
      "stateMutability": "nonpayable",
      "type": "constructor"
    },
    {
      "inputs": [],
      "name": "_name",
      "outputs": [
        {
          "internalType": "string",
          "name": "",
          "type": "string"
        }
      ],
      "stateMutability": "view",
      "type": "function"
    },
    {
      "inputs": [
        {
          "internalType": "string",
          "name": "cid",
          "type": "string"
        }
      ],
      "name": "claim",
      "outputs": [],
      "stateMutability": "nonpayable",
      "type": "function"
    },
    {
      "inputs": [
        {
          "internalType": "string",
          "name": "",
          "type": "string"
        }
      ],
      "name": "contentOwners",
      "outputs": [
        {
          "internalType": "address",
          "name": "",
          "type": "address"
        }
      ],
      "stateMutability": "view",
      "type": "function"
    },
    {
      "inputs": [
        {
          "internalType": "string",
          "name": "cid",
          "type": "string"
        }
      ],
      "name": "getOwner",
      "outputs": [
        {
          "internalType": "address",
          "name": "",
          "type": "address"
        }
      ],
      "stateMutability": "view",
      "type": "function"
    },
    {
      "inputs": [],
      "name": "name",
      "outputs": [
        {
          "internalType": "string",
          "name": "",
          "type": "string"
        }
      ],
      "stateMutability": "view",
      "type": "function"
    }
  ],
  "bytecode": "0x608060405234801561001057600080fd5b506040518060400160405280600681526020017f50617033727300000000000000000000000000000000000000000000000000008152506000908051906020019061005c929190610062565b50610166565b82805461006e90610105565b90600052602060002090601f01602090048101928261009057600085556100d7565b82601f106100a957805160ff19168380011785556100d7565b828001600101855582156100d7579182015b828111156100d65782518255916020019190600101906100bb565b5b5090506100e491906100e8565b5090565b5b808211156101015760008160009055506001016100e9565b5090565b6000600282049050600182168061011d57607f821691505b6020821081141561013157610130610137565b5b50919050565b7f4e487b7100000000000000000000000000000000000000000000000000000000600052602260045260246000fd5b6106b8806101756000396000f3fe608060405234801561001057600080fd5b50600436106100575760003560e01c806306fdde031461005c5780634aaf4a121461007a5780638a16971a146100aa578063d28d8852146100da578063f3fe12c9146100f8575b600080fd5b610064610114565b6040516100719190610489565b60405180910390f35b610094600480360381019061008f9190610395565b6101a6565b6040516100a1919061046e565b60405180910390f35b6100c460048036038101906100bf9190610395565b6101ee565b6040516100d1919061046e565b60405180910390f35b6100e2610237565b6040516100ef9190610489565b60405180910390f35b610112600480360381019061010d9190610395565b6102c5565b005b6060600080546101239061059c565b80601f016020809104026020016040519081016040528092919081815260200182805461014f9061059c565b801561019c5780601f106101715761010080835404028352916020019161019c565b820191906000526020600020905b81548152906001019060200180831161017f57829003601f168201915b5050505050905090565b60006001826040516101b89190610457565b908152602001604051809103902060009054906101000a900473ffffffffffffffffffffffffffffffffffffffff169050919050565b6001818051602081018201805184825260208301602085012081835280955050505050506000915054906101000a900473ffffffffffffffffffffffffffffffffffffffff1681565b600080546102449061059c565b80601f01602080910402602001604051908101604052809291908181526020018280546102709061059c565b80156102bd5780601f10610292576101008083540402835291602001916102bd565b820191906000526020600020905b8154815290600101906020018083116102a057829003601f168201915b505050505081565b336001826040516102d69190610457565b908152602001604051809103902060006101000a81548173ffffffffffffffffffffffffffffffffffffffff021916908373ffffffffffffffffffffffffffffffffffffffff16021790555050565b6000610338610333846104d0565b6104ab565b90508281526020810184848401111561035457610353610662565b5b61035f84828561055a565b509392505050565b600082601f83011261037c5761037b61065d565b5b813561038c848260208601610325565b91505092915050565b6000602082840312156103ab576103aa61066c565b5b600082013567ffffffffffffffff8111156103c9576103c8610667565b5b6103d584828501610367565b91505092915050565b6103e781610528565b82525050565b60006103f882610501565b610402818561050c565b9350610412818560208601610569565b61041b81610671565b840191505092915050565b600061043182610501565b61043b818561051d565b935061044b818560208601610569565b80840191505092915050565b60006104638284610426565b915081905092915050565b600060208201905061048360008301846103de565b92915050565b600060208201905081810360008301526104a381846103ed565b905092915050565b60006104b56104c6565b90506104c182826105ce565b919050565b6000604051905090565b600067ffffffffffffffff8211156104eb576104ea61062e565b5b6104f482610671565b9050602081019050919050565b600081519050919050565b600082825260208201905092915050565b600081905092915050565b60006105338261053a565b9050919050565b600073ffffffffffffffffffffffffffffffffffffffff82169050919050565b82818337600083830152505050565b60005b8381101561058757808201518184015260208101905061056c565b83811115610596576000848401525b50505050565b600060028204905060018216806105b457607f821691505b602082108114156105c8576105c76105ff565b5b50919050565b6105d782610671565b810181811067ffffffffffffffff821117156105f6576105f561062e565b5b80604052505050565b7f4e487b7100000000000000000000000000000000000000000000000000000000600052602260045260246000fd5b7f4e487b7100000000000000000000000000000000000000000000000000000000600052604160045260246000fd5b600080fd5b600080fd5b600080fd5b600080fd5b6000601f19601f830116905091905056fea264697066735822122015b10560372bbed74f496e51817c8aa114d63afad27cf632e85f95018bea250064736f6c63430008070033",
  "linkReferences": {},
  "deployedLinkReferences": {}
}