{
  "_format": "hh-sol-artifact-1",
  "contractName": "Pap3rs",
  "sourceName": "contracts/Pap3rs.sol",
  "abi": [
    {
      "inputs": [],
      "stateMutability": "nonpayable",
      "type": "constructor"
    },
    {
      "anonymous": false,
      "inputs": [
        {
          "indexed": true,
          "internalType": "address",
          "name": "donor",
          "type": "address"
        },
        {
          "indexed": true,
          "internalType": "address",
          "name": "spender",
          "type": "address"
        },
        {
          "indexed": false,
          "internalType": "uint256",
          "name": "value",
          "type": "uint256"
        }
      ],
      "name": "Donation",
      "type": "event"
    },
    {
      "anonymous": false,
      "inputs": [
        {
          "indexed": true,
          "internalType": "address",
          "name": "owner",
          "type": "address"
        },
        {
          "indexed": true,
          "internalType": "address",
          "name": "spender",
          "type": "address"
        },
        {
          "indexed": false,
          "internalType": "uint256",
          "name": "value",
          "type": "uint256"
        }
      ],
      "name": "DonationApproval",
      "type": "event"
    },
    {
      "inputs": [],
      "name": "_name",
      "outputs": [
        {
          "internalType": "string",
          "name": "",
          "type": "string"
        }
      ],
      "stateMutability": "view",
      "type": "function"
    },
    {
      "inputs": [
        {
          "internalType": "address",
          "name": "tokenContactAddress",
          "type": "address"
        },
        {
          "internalType": "uint256",
          "name": "amount",
          "type": "uint256"
        }
      ],
      "name": "approveDonationToken",
      "outputs": [],
      "stateMutability": "nonpayable",
      "type": "function"
    },
    {
      "inputs": [
        {
          "internalType": "string",
          "name": "cid",
          "type": "string"
        }
      ],
      "name": "claim",
      "outputs": [],
      "stateMutability": "nonpayable",
      "type": "function"
    },
    {
      "inputs": [
        {
          "internalType": "string",
          "name": "",
          "type": "string"
        }
      ],
      "name": "contentOwners",
      "outputs": [
        {
          "internalType": "address",
          "name": "",
          "type": "address"
        }
      ],
      "stateMutability": "view",
      "type": "function"
    },
    {
      "inputs": [
        {
          "internalType": "string",
          "name": "cid",
          "type": "string"
        },
        {
          "internalType": "address",
          "name": "tokenContactAddress",
          "type": "address"
        },
        {
          "internalType": "uint256",
          "name": "amount",
          "type": "uint256"
        }
      ],
      "name": "donate",
      "outputs": [],
      "stateMutability": "nonpayable",
      "type": "function"
    },
    {
      "inputs": [
        {
          "internalType": "string",
          "name": "cid",
          "type": "string"
        },
        {
          "internalType": "address",
          "name": "tokenContactAddress",
          "type": "address"
        }
      ],
      "name": "getDonationBalance",
      "outputs": [
        {
          "internalType": "uint256",
          "name": "",
          "type": "uint256"
        }
      ],
      "stateMutability": "view",
      "type": "function"
    },
    {
      "inputs": [
        {
          "internalType": "string",
          "name": "cid",
          "type": "string"
        }
      ],
      "name": "getOwner",
      "outputs": [
        {
          "internalType": "address",
          "name": "",
          "type": "address"
        }
      ],
      "stateMutability": "view",
      "type": "function"
    },
    {
      "inputs": [],
      "name": "name",
      "outputs": [
        {
          "internalType": "string",
          "name": "",
          "type": "string"
        }
      ],
      "stateMutability": "view",
      "type": "function"
    },
    {
      "inputs": [
        {
          "internalType": "string",
          "name": "",
          "type": "string"
        },
        {
          "internalType": "address",
          "name": "",
          "type": "address"
        }
      ],
      "name": "tokenBalances",
      "outputs": [
        {
          "internalType": "uint256",
          "name": "",
          "type": "uint256"
        }
      ],
      "stateMutability": "view",
      "type": "function"
    }
  ],
  "bytecode": "0x60806040523480156200001157600080fd5b506040518060400160405280600681526020017f5061703372730000000000000000000000000000000000000000000000000000815250600090805190602001906200005f92919062000066565b506200017b565b828054620000749062000116565b90600052602060002090601f016020900481019282620000985760008555620000e4565b82601f10620000b357805160ff1916838001178555620000e4565b82800160010185558215620000e4579182015b82811115620000e3578251825591602001919060010190620000c6565b5b509050620000f39190620000f7565b5090565b5b8082111562000112576000816000905550600101620000f8565b5090565b600060028204905060018216806200012f57607f821691505b602082108114156200014657620001456200014c565b5b50919050565b7f4e487b7100000000000000000000000000000000000000000000000000000000600052602260045260246000fd5b610de7806200018b6000396000f3fe608060405234801561001057600080fd5b50600436106100935760003560e01c80634aaf4a12116100665780634aaf4a12146101325780635af7319c146101625780638a16971a1461017e578063d28d8852146101ae578063f3fe12c9146101cc57610093565b806303ff44391461009857806306fdde03146100c857806317815cce146100e6578063491e394f14610116575b600080fd5b6100b260048036038101906100ad9190610846565b6101e8565b6040516100bf9190610a90565b60405180910390f35b6100d061024e565b6040516100dd9190610a4e565b60405180910390f35b61010060048036038101906100fb9190610846565b6102e0565b60405161010d9190610a90565b60405180910390f35b610130600480360381019061012b9190610790565b61031b565b005b61014c600480360381019061014791906107fd565b6103ad565b60405161015991906109d3565b60405180910390f35b61017c600480360381019061017791906108a2565b6103f5565b005b610198600480360381019061019391906107fd565b6105aa565b6040516101a591906109d3565b60405180910390f35b6101b66105f3565b6040516101c39190610a4e565b60405180910390f35b6101e660048036038101906101e191906107fd565b610681565b005b60006002836040516101fa91906109bc565b908152602001604051809103902060008373ffffffffffffffffffffffffffffffffffffffff1673ffffffffffffffffffffffffffffffffffffffff16815260200190815260200160002054905092915050565b60606000805461025d90610c08565b80601f016020809104026020016040519081016040528092919081815260200182805461028990610c08565b80156102d65780601f106102ab576101008083540402835291602001916102d6565b820191906000526020600020905b8154815290600101906020018083116102b957829003601f168201915b5050505050905090565b600282805160208101820180518482526020830160208501208183528095505050505050602052806000526040600020600091509150505481565b8173ffffffffffffffffffffffffffffffffffffffff1663095ea7b330836040518363ffffffff1660e01b8152600401610356929190610a25565b602060405180830381600087803b15801561037057600080fd5b505af1158015610384573d6000803e3d6000fd5b505050506040513d601f19601f820116820180604052508101906103a891906107d0565b505050565b60006001826040516103bf91906109bc565b908152602001604051809103902060009054906101000a900473ffffffffffffffffffffffffffffffffffffffff169050919050565b600073ffffffffffffffffffffffffffffffffffffffff1660018460405161041d91906109bc565b908152602001604051809103902060009054906101000a900473ffffffffffffffffffffffffffffffffffffffff1673ffffffffffffffffffffffffffffffffffffffff1614156104a3576040517f08c379a000000000000000000000000000000000000000000000000000000000815260040161049a90610a70565b60405180910390fd5b8173ffffffffffffffffffffffffffffffffffffffff166323b872dd3330846040518463ffffffff1660e01b81526004016104e0939291906109ee565b602060405180830381600087803b1580156104fa57600080fd5b505af115801561050e573d6000803e3d6000fd5b505050506040513d601f19601f8201168201806040525081019061053291906107d0565b508060028460405161054491906109bc565b908152602001604051809103902060008473ffffffffffffffffffffffffffffffffffffffff1673ffffffffffffffffffffffffffffffffffffffff168152602001908152602001600020600082825461059e9190610b28565b92505081905550505050565b6001818051602081018201805184825260208301602085012081835280955050505050506000915054906101000a900473ffffffffffffffffffffffffffffffffffffffff1681565b6000805461060090610c08565b80601f016020809104026020016040519081016040528092919081815260200182805461062c90610c08565b80156106795780601f1061064e57610100808354040283529160200191610679565b820191906000526020600020905b81548152906001019060200180831161065c57829003601f168201915b505050505081565b3360018260405161069291906109bc565b908152602001604051809103902060006101000a81548173ffffffffffffffffffffffffffffffffffffffff021916908373ffffffffffffffffffffffffffffffffffffffff16021790555050565b60006106f46106ef84610ad0565b610aab565b9050828152602081018484840111156107105761070f610cfd565b5b61071b848285610bc6565b509392505050565b60008135905061073281610d6c565b92915050565b60008151905061074781610d83565b92915050565b600082601f83011261076257610761610cf8565b5b81356107728482602086016106e1565b91505092915050565b60008135905061078a81610d9a565b92915050565b600080604083850312156107a7576107a6610d07565b5b60006107b585828601610723565b92505060206107c68582860161077b565b9150509250929050565b6000602082840312156107e6576107e5610d07565b5b60006107f484828501610738565b91505092915050565b60006020828403121561081357610812610d07565b5b600082013567ffffffffffffffff81111561083157610830610d02565b5b61083d8482850161074d565b91505092915050565b6000806040838503121561085d5761085c610d07565b5b600083013567ffffffffffffffff81111561087b5761087a610d02565b5b6108878582860161074d565b925050602061089885828601610723565b9150509250929050565b6000806000606084860312156108bb576108ba610d07565b5b600084013567ffffffffffffffff8111156108d9576108d8610d02565b5b6108e58682870161074d565b93505060206108f686828701610723565b92505060406109078682870161077b565b9150509250925092565b61091a81610b7e565b82525050565b600061092b82610b01565b6109358185610b0c565b9350610945818560208601610bd5565b61094e81610d0c565b840191505092915050565b600061096482610b01565b61096e8185610b1d565b935061097e818560208601610bd5565b80840191505092915050565b6000610997602b83610b0c565b91506109a282610d1d565b604082019050919050565b6109b681610bbc565b82525050565b60006109c88284610959565b915081905092915050565b60006020820190506109e86000830184610911565b92915050565b6000606082019050610a036000830186610911565b610a106020830185610911565b610a1d60408301846109ad565b949350505050565b6000604082019050610a3a6000830185610911565b610a4760208301846109ad565b9392505050565b60006020820190508181036000830152610a688184610920565b905092915050565b60006020820190508181036000830152610a898161098a565b9050919050565b6000602082019050610aa560008301846109ad565b92915050565b6000610ab5610ac6565b9050610ac18282610c3a565b919050565b6000604051905090565b600067ffffffffffffffff821115610aeb57610aea610cc9565b5b610af482610d0c565b9050602081019050919050565b600081519050919050565b600082825260208201905092915050565b600081905092915050565b6000610b3382610bbc565b9150610b3e83610bbc565b9250827fffffffffffffffffffffffffffffffffffffffffffffffffffffffffffffffff03821115610b7357610b72610c6b565b5b828201905092915050565b6000610b8982610b9c565b9050919050565b60008115159050919050565b600073ffffffffffffffffffffffffffffffffffffffff82169050919050565b6000819050919050565b82818337600083830152505050565b60005b83811015610bf3578082015181840152602081019050610bd8565b83811115610c02576000848401525b50505050565b60006002820490506001821680610c2057607f821691505b60208210811415610c3457610c33610c9a565b5b50919050565b610c4382610d0c565b810181811067ffffffffffffffff82111715610c6257610c61610cc9565b5b80604052505050565b7f4e487b7100000000000000000000000000000000000000000000000000000000600052601160045260246000fd5b7f4e487b7100000000000000000000000000000000000000000000000000000000600052602260045260246000fd5b7f4e487b7100000000000000000000000000000000000000000000000000000000600052604160045260246000fd5b600080fd5b600080fd5b600080fd5b600080fd5b6000601f19601f8301169050919050565b7f434944206d7573742068617665206265656e20636f6e7472696275746564207460008201527f6f20646f6e61746520746f000000000000000000000000000000000000000000602082015250565b610d7581610b7e565b8114610d8057600080fd5b50565b610d8c81610b90565b8114610d9757600080fd5b50565b610da381610bbc565b8114610dae57600080fd5b5056fea264697066735822122030e4d87e02192a0404a999a7fea98e95426989b4bd2d5e376a76cf7d5d953d4964736f6c63430008070033",
  "linkReferences": {},
  "deployedLinkReferences": {}
}